:1005BB00023F0001023D0000024100000227000043
:1005CB00023A00000221000002230000102A000062
:0E05DB00000000000000000000000000000012
:10061300EF1FAA0670011E4A6013E4FCFDC3ED94AC
:0D06230058EC940250EA0DBD00010C80F06F
:0106300022A7
:0B065700EF1FAC0670011E4C70F62275
:03000B000203AF3E
:1003AF00C0E0C0F0C083C082C0D075D000C000C014
:1003BF0001C002C003C004C005C006C007758CFC95
:1003CF00758A180524E52470020523C3944CE52390
:1003DF0094044006752300752400E528640445271E
:1003EF006003020497C3E5409409E53F9400400879
:1003FF00753F0075400180080540E5407002053FDC
:10040F00D3E540952BE53F952A4004D2A08002C248
:10041F00A0D3E540952DE53F952C4004D2A1800255
:10042F00C2A1D3E540952FE53F952E4004D2A2807F
:10043F0002C2A2D3E5409531E53F95304004D2A3E7
:10044F008002C2A3D3E5409533E53F95324004D2F5
:10045F00A48002C2A4D3E5409535E53F953440040E
:10046F00D2A58002C2A5D3E5409537E53F9536402A
:10047F0004D2A68002C2A6D3E5409539E53F953850
:10048F004004D2A78002C2A7E54245416020053B48
:10049F00E53B7002053AAE3AFFE4FCFD7B607AEA79
:1004AF00F9F8C31206315006753A00753B00E5287E
:1004BF0064034527704F053C0526E5267002052588
:1004CF00E53CB5290375A0FEE53C640A700575A0EF
:1004DF00FFF53CE526643C4525701120000EF525FF
:1004EF00F5260529E52964097002D200E526643C4A
:1004FF004525701130000EF525F5261529E52964DF
:10050F00017002C200D007D006D005D004D003D0AE
:10051F0002D001D000D0D0D082D083D0F0D0E03242
:10064700758901758CFC758A18D2AFD2A9D28C2214
:05000300007FF7DFFEA5
:0100080022D5
:0705EA00F583F5827F64FE3A
:0405F100AD07AC06A0
:1005F500E4FBFAED25E0FFEC33FEC3EB9FEA9E50EA
:0D0605000CB2A51200030BBB00010A80E639
:0106120022C5
:10000E00900001120647E4F525F526F53C75290505
:10001E00C20075A0FF20B174E4F527F5287F0AFE13
:10002E00120613E542640245417010E582640145F3
:10003E00837008F5417542031205EAE542640145F5
:10004E00417010E582640145837008F541754202E6
:10005E001205EAE54245417010E582640145837060
:10006E0008F5417542011205EAD3E53B94E8E53AFD
:10007E00940340A1752700752804E4F583F582F5F5
:10008E0041F5427F64FE1205F1020023900001D378
:10009E00E53B94E8E53A94034017E52864044527C8
:1000AE006006854127854228E4F541F542F53AF58B
:1000BE003BE5286401452770320522E522700205D2
:1000CE0021C39488E52194135003E4F5A0D3E522CF
:1000DE009410E5219427401375A0FFD3E522949840
:1000EE00E521943A4005E4F521F522E52864024520
:1000FE002760030201D00522E52270020521C39478
:10010E00E8E5219403500375A0FED3E52294E8E5BB
:10011E00219403400DE52294D0E5219407500375F8
:10012E00A0FDD3E52294D0E5219407400DE522945D
:10013E00B8E521940B500375A0FBD3E52294B8E5E6
:10014E0021940B400DE52294A0E521940F500375E8
:10015E00A0F7D3E52294A0E521940F400DE522945B
:10016E0088E5219413500375A0EFD3E5229488E51A
:10017E00219413400DE5229470E5219417500375D8
:10018E00A0DFD3E5229470E5219417400DE522946B
:10019E0058E521941B500375A0BFD3E5229458E572
:1001AE0021941B400DE5229440E521941F500375C8
:1001BE00A07FD3E5229440E521941F4005E4F5216C
:1001CE00F522E528640445276003020023C3E524D5
:1001DE009464E52394005022752A00752B0AE4F5E9
:1001EE0038F539F536F537F534F535F532F533F5AD
:1001FE0030F531F52EF52F0202ADC3E5249464E5FA
:10020E002394004019E52494C8E5239400500F75FB
:10021E002C00752D0A752A00752B06020023C3E5E6
:10022E002494C8E5239400401FE524942CE52394E0
:10023E00015015752E00752F0A752C00752D06753B
:10024E002A00752B02020023C3E524942CE5239487
:10025E00014024E5249490E5239401501A75300052
:10026E0075310A752E00752F06752C00752D02E45A
:10027E00F52AF52B020023C3E5249490E52394017F
:10028E004024E52494F4E5239401501A7532007548
:10029E00330A753000753106752E00752F02E4F5A0
:1002AE002CF52D020023C3E52494F4E5239401409C
:1002BE0024E5249458E5239402501A7534007535BC
:1002CE000A753200753306753000753102E4F52E6D
:1002DE00F52F020023C3E5249458E523940240240D
:1002EE00E52494BCE5239402501A75360075370A3E
:1002FE00753400753506753200753302E4F530F548
:10030E0031020023C3E52494BCE52394024024E586
:10031E00249420E5239403501A75380075390A7514
:10032E003600753706753400753502E4F532F5334F
:10033E00020023C3E5249420E5239403401EE52404
:10034E009484E52394035014753800753906753678
:10035E0000753702E4F534F535020023C3E5249425
:10036E0084E52394034017E52494E8E52394035091
:10037E000DE4F536F537F538753902020023C3E57D
:10038E002494E8E52394035003020023E524944CBF
:10039E00E52394044003020023E4F538F539020006
:0103AE00232B
:0300000002052FC7
:0C052F00787FE4F6D8FD75814202057665
:10063100EB9FF5F0EA9E42F0E99D42F0EC6480C840
:0606410064809845F022E0
:10053B0002000EE493A3F8E493A34003F68001F2C8
:10054B0008DFF48029E493A3F85407240CC8C333C1
:10055B00C4540F4420C8834004F456800146F6DF90
:10056B00E4800B01020408102040809005BBE47E60
:10057B00019360BCA3FF543F30E509541FFEE49385
:10058B00A360010ECF54C025E060A840B8E493A34C
:10059B00FAE493A3F8E493A3C8C582C8CAC583CA77
:1005AB00F0A3C8C582C8CAC583CADFE9DEE780BE2F
:0105E9000011
:00000001FF
