:100C6900023D0001023B0000023F00000225000096
:100C790002380000022100001028000000000000D6
:0A0C89000000000000000000000061
:030CBD007F0AFEAD
:100CC000EF1FAA0670011E4A6013E4FCFDC3ED94F9
:0D0CD00058EC940250EA0DBD00010C80F0BC
:010CDD0022F4
:0B0D0400EF1FAC0670011E4C70F622C1
:03000B00020A7472
:100A7400C0E0C0F0C083C082C0D075D000C000C048
:100A840001C002C003C004C005C006C007758CFCC9
:100A9400758A18E526640445256003020B45C3E501
:100AA4003E9409E53D94004008753D00753E018083
:100AB40008053EE53E7002053DD3E53E9529E53D3A
:100AC40095284004D2A08002C2A0D3E53E952BE530
:100AD4003D952A4004D2A18002C2A1D3E53E952DC2
:100AE400E53D952C4004D2A28002C2A2D3E53E95F6
:100AF4002FE53D952E4004D2A38002C2A3D3E53E48
:100B04009531E53D95304004D2A48002C2A4D3E5DA
:100B14003E9533E53D95324004D2A58002C2A5D36B
:100B2400E53E9535E53D95344004D2A68002C2A643
:100B3400D3E53E9537E53D95364004D2A78002C201
:100B4400A7E540453F60200539E53970020538AE18
:100B540038FFE4FCFD7B607AEAF9F8C3120CDE503E
:100B640006753800753900E52664034525704F0580
:100B74003A0524E52470020523E53AB5270375A058
:100B8400FEE53A640A700575A0FFF53AE524643C75
:100B94004523701120000EF523F5240527E527646D
:100BA400097002D200E524643C4523701130000E24
:100BB400F523F5241527E52764017002C200D00748
:100BC400D006D005D004D003D002D001D000D0D0BC
:090BD400D082D083D0F0D0E032D1
:100CF400758901758CFC758A18D2AFD2A9D28C2261
:050D0F00007FF7DFFE8C
:010D140022BC
:070C9400F583F5827F64FE89
:040C9B00AD07AC06EF
:100C9F00E4FBFAED25E0FFEC33FEC3EB9FEA9E5039
:0D0CAF000CB2A5120D0F0BBB00010A80E670
:010CBC002215
:10080000900001120CF4E4F523F524F53A75270560
:10081000C20075A0FF20B171E4F525F526120CBDCC
:10082000E5406402453F7010E5826401458370082D
:10083000F53F754003120C94E5406401453F70108C
:10084000E582640145837008F53F754002120C94FF
:10085000E540453F7010E582640145837008F53F2F
:10086000754001120C94D3E53994E8E538940340BF
:10087000A4752500752604E4F583F582F53FF5405F
:100880007F64FE120C9B020815900001D3E5399499
:10089000E8E53894034017E526640445256006859D
:1008A0003F25854026E4F53FF540F538F539E52646
:1008B0006401452570320522E52270020521C394AA
:1008C00088E52194135003E4F5A0D3E5229410E5C4
:1008D000219427401375A0FFD3E5229498E5219435
:1008E0003A4005E4F521F522E5266402452560033A
:1008F0000209BF0522E52270020521C394E8E52123
:100900009403500375A0FED3E52294E8E5219403F7
:10091000400DE52294D0E5219407500375A0FDD346
:10092000E52294D0E5219407400DE52294B8E52115
:10093000940B500375A0FBD3E52294B8E521940BEA
:10094000400DE52294A0E521940F500375A0F7D344
:10095000E52294A0E521940F400DE5229488E5213D
:100960009413500375A0EFD3E5229488E5219413E6
:10097000400DE5229470E5219417500375A0DFD354
:10098000E5229470E5219417400DE5229458E52165
:10099000941B500375A0BFD3E5229458E521941B06
:1009A000400DE5229440E521941F500375A07FD3AC
:1009B000E5229440E521941F4005E4F521F522E568
:1009C00026640445256003020815F52875290A12D6
:1009D0000CBD752A00752B0A7528007529067F0A3B
:1009E0007E00120CC0752C00752D0A752A00752B1F
:1009F00006752800752902E4F53BF53CAF3CEF2570
:100A0000E02428F8E4F608F6EF25E0242AF876003A
:100A1000087602EF25E0242CF87600087606EF250C
:100A2000E0242EF8760008760A7F0A7E00120CC0B9
:100A3000053CE53C7002053BC39405E53B94004052
:100A4000BBE4F532F533F534753502F53675370606
:100A50007F0AFE120CC0E4F534F535F53675370221
:100A60007F0AFE120CC0E4F536F5377F0AFE120C41
:040A7000C0020815A3
:03000000020BDD13
:0C0BDD00787FE4F6D8FD758140020C24FE
:100CDE00EB9FF5F0EA9E42F0E99D42F0EC6480C88D
:060CEE0064809845F0222D
:100BE900020800E493A3F8E493A34003F68001F21A
:100BF90008DFF48029E493A3F85407240CC8C3330D
:100C0900C4540F4420C8834004F456800146F6DFDB
:100C1900E4800B0102040810204080900C69E47EF6
:100C2900019360BCA3FF543F30E509541FFEE493D0
:100C3900A360010ECF54C025E060A840B8E493A397
:100C4900FAE493A3F8E493A3C8C582C8CAC583CAC2
:100C5900F0A3C8C582C8CAC583CADFE9DEE780BE7A
:010C93000060
:00000001FF
